:1000000000000120510C0000C10C0000C30C0000D6
:10001000C50C0000C70C0000C90C00000000000067
:10002000000000000000000000000000CB0C0000F9
:10003000CD0C000000000000CF0C0000D10C00002F
:10004000D30C0000D30C0000D30C0000D30C000034
:10005000D30C0000D30C0000D30C0000D30C000024
:10006000D30C0000D30C0000D30C0000D30C000014
:10007000D30C0000D30C0000D30C0000D30C000004
:10008000D30C0000D30C0000D30C0000D30C0000F4
:10009000D30C0000D30C0000D30C0000D30C0000E4
:1000A000D30C0000D30C0000D30C0000D30C0000D4
:1000B000D30C0000D30C0000000000000000000082
:1000C000D30C0000D30C0000D30C0000D30C0000B4
:1000D000D30C0000D30C0000D30C00000000000083
:1000E0000000000000000000000000000000000010
:1000F0000000000000000000000000000000000000
:1001000000000000000000000000000000000000EF
:1001100000000000000000000000000000000000DF
:1001200000000000000000000000000000000000CF
:1001300000000000000000000000000000000000BF
:1001400000000000000000000000000000000000AF
:10015000000000000000000000000000000000009F
:10016000000000000000000000000000000000008F
:10017000000000000000000000000000000000007F
:10018000000000000000000000000000000000006F
:10019000000000000000000000000000000000005F
:1001A000000000000000000000000000000000004F
:1001B000000000000000000000000000000000003F
:1001C000000000000000000000000000000000002F
:1001D000000000000000000000000000000000001F
:1001E000000000000000000000000000000000000F
:1001F00000000000000000000000000000000000FF
:08020000900000000100000065
:100208000348044B834202D0034B03B1184770479D
:100218000400002004000020000000000548064BF0
:100228001B1AD90F01EBA301491002D0034B03B1EC
:100238001847704704000020040000200000000058
:1002480010B5064C237843B9FFF7DAFF044B13B116
:100258000448AFF300800123237010BD0400002080
:1002680000000000680F000008B5044B1BB10449EA
:100278000448AFF30080BDE80840CFE70000000065
:1002880008000020680F0000A3F5803A704700BFFF
:10029800154B002B08BF114B9D46FFF7F5FF0021BA
:1002A8008B460F461148124A121A00F00FFD0C4BEC
:1002B800002B00D098470B4B002B00D0984700200C
:1002C800002104000D000B4800F088FD00F050FDEF
:1002D8002000290000F020F800F072FD000008005E
:1002E80000000000000000000000012004000020C1
:1002F800F0020020F10D000080B400AF4FF0A043E1
:100308000C22C3F834274FF0A0430C22C3F8382737
:1003180000BFBD4680BC704780B584B000AFFFF712
:10032800EBFF1123FB6010E00122FB689A404FF0BD
:10033800A043C3F818250122FB689A404FF0A04358
:10034800C3F80C25FB680133FB60FB68142BEBDD5D
:100358000023BB604FF0A043D3F8103503F40053DB
:10036800002B0FD111237B6009E001227B689A40A2
:100378004FF0A043C3F80C257B6801337B607B6892
:10038800142BF2DD4FF0A043D3F8103503F480436B
:10039800002B0FD111233B6009E001223B689A40F2
:1003A8004FF0A043C3F808253B6801333B603B6826
:1003B800142BF2DD42F21073BB6000BFBB68013B37
:1003C800BB60BB68002BF9D1C4E7000080B483B0E0
:1003D80000AF1E4B1B68B3F1FF3F0AD11C4B1B68D3
:1003E800DBB27B601B4B1B681B0903F00F033B60F0
:1003F80005E0164B1B687B60174B1B683B607B68EE
:10040800062B1DD13B68033B042B17D801A252F8D9
:1004180023F000BF31040000350400003904000057
:100428003D0400004104000001230AE0012308E024
:10043800012306E0012304E0012302E0012300E098
:10044800002318460C37BD4680BC704730010010A9
:10045800E00F00F0E80F00F03401001080B483B022
:1004680000AF184B1B68DBB27B60174B1B681B097E
:1004780003F00F033B607B68062B1DD13B68033BF1
:10048800042B17D801A252F823F000BFA9040000DA
:10049800AD040000B1040000B5040000B904000078
:1004A80001230AE0002308E0002306E0002304E01B
:1004B800002302E0002300E0002318460C37BD4665
:1004C80080BC7047E00F00F0E80F00F080B483B004
:1004D80000AF1E4B1B68B3F1FF3F0AD11C4B1B68D2
:1004E800DBB27B601B4B1B681B0903F00F033B60EF
:1004F80005E0164B1B687B60174B1B683B607B68ED
:10050800062B1DD13B68033B042B17D801A252F8D8
:1005180023F000BF31050000350500003905000053
:100528003D0500004105000001230AE0012308E021
:10053800012306E0012304E0012302E0012300E097
:10054800002318460C37BD4680BC704730010010A8
:10055800E00F00F0E80F00F03401001080B483B021
:1005680000AF184B1B68DBB27B60174B1B681B097D
:1005780003F00F033B607B68062B1DD13B68033BF0
:10058800042B17D801A252F823F000BFA9050000D8
:10059800AD050000B1050000B5050000B905000073
:1005A80001230AE0002308E0002306E0002304E01A
:1005B800002302E0002300E0002318460C37BD4664
:1005C80080BC7047E00F00F0E80F00F080B483B003
:1005D80000AF1E4B1B68B3F1FF3F0AD11C4B1B68D1
:1005E800DBB27B601B4B1B681B0903F00F033B60EE
:1005F80005E0164B1B687B60174B1B683B607B68EC
:10060800062B1DD13B68033B042B17D801A252F8D7
:1006180023F000BF3106000035060000390600004F
:100628003D0600004106000001230AE0012308E01E
:10063800012306E0012304E0012302E0012300E096
:10064800002318460C37BD4680BC704730010010A7
:10065800E00F00F0E80F00F03401001080B483B020
:1006680000AF184B1B68DBB27B60174B1B681B097C
:1006780003F00F033B607B68062B1DD13B68033BEF
:10068800042B17D801A252F823F000BFA9060000D6
:10069800AD060000B1060000B5060000B90600006E
:1006A80001230AE0002308E0002306E0002304E019
:1006B800002302E0002300E0002318460C37BD4663
:1006C80080BC7047E00F00F0E80F00F080B483B002
:1006D80000AF184B1B68DBB27B60174B1B681B090C
:1006E80003F00F033B607B68062B1DD13B68033B7F
:1006F800042B17D801A252F823F000BF19070000F5
:100708001D07000021070000250700002907000039
:1007180001230AE0002308E0002306E0002304E0A8
:10072800002302E0002300E0002318460C37BD46F2
:1007380080BC7047E00F00F0E80F00F080B483B091
:1007480000AF1E4B1B68B3F1FF3F0AD11C4B1B685F
:10075800DBB27B601B4B1B681B0903F00F033B607C
:1007680005E0164B1B687B60174B1B683B607B687A
:10077800062B1DD13B68033B042B17D801A252F866
:1007880023F000BFA1070000A5070000A90700008B
:10079800AD070000B107000000230AE0002308E0CD
:1007A800012306E0012304E0012302E0012300E025
:1007B800002318460C37BD4680BC70473001001036
:1007C800E00F00F0E80F00F03401001080B483B0AF
:1007D80000AF1E4B1B68B3F1FF3F0AD11C4B1B68CF
:1007E800DBB27B601B4B1B681B0903F00F033B60EC
:1007F80005E0164B1B687B60174B1B683B607B68EA
:10080800062B1DD13B68033B042B17D801A252F8D5
:1008180023F000BF31080000350800003908000047
:100828003D0800004108000001230AE0012308E018
:10083800012306E0012304E0012302E0012300E094
:10084800002318460C37BD4680BC704730010010A5
:10085800E00F00F0E80F00F03401001080B483B01E
:1008680000AF1E4B1B68B3F1FF3F0AD11C4B1B683E
:10087800DBB27B601B4B1B681B0903F00F033B605B
:1008880005E0164B1B687B60174B1B683B607B6859
:10089800062B1DD13B68033B042B17D801A252F845
:1008A80023F000BFC1080000C5080000C908000007
:1008B800CD080000D108000001230AE0012308E068
:1008C800012306E0012304E0012302E0012300E004
:1008D800002318460C37BD4680BC70473001001015
:1008E800E00F00F0E80F00F03401001080B483B08E
:1008F80000AF164B1B687B60154B1B683B607B6821
:10090800062B1DD13B68033B042B17D801A252F8D4
:1009180023F000BF31090000350900003909000043
:100928003D0900004109000000230AE0002308E017
:10093800002306E0012304E0012302E0012300E094
:10094800002318460C37BD4680BC704730010010A4
:100958003401001080B483B000AF164B1B687B6075
:10096800154B1B683B607B68062B1DD13B68033B1E
:10097800042B17D801A252F823F000BF99090000F0
:100988009D090000A1090000A5090000A9090000AF
:1009980000230AE0002308E0002306E0002304E027
:1009A800012302E0012300E0002318460C37BD466E
:1009B80080BC7047300100103401001080B500AFD2
:1009C800FFF7C8FF0346002B07D04FF010234FF066
:1009D8008042D3F80832C2F8583500BF80BD000005
:1009E80080B400AF034B044A1A6000BFBD4680BC08
:1009F800704700BF000000200090D00380B500AF12
:100A0800FFF7E4FC0346002B06D07F4B1B681B0A4C
:100A18007E4A03F01F031360FFF720FD0346002BF7
:100A280002D07B4B7B4A1A60FFF750FD0346002B30
:100A380006D0794B1B685B0B784A03F007031360F9
:100A4800FFF78CFD0346002B05D0754BDB68744A15
:100A580023F08073D360FFF7B9FD0346002B0ED057
:100A68004FF080430022C3F80C214FF0804300224E
:100A7800C3F810214FF080430022C3F83825FFF750
:100A8800EDFD0346002B02D0664B03221A60FFF7E8
:100A98001DFE0346002B0BD0634B05221A60634BE7
:100AA80001221A60624B00221A60624B3F221A60D0
:100AB800FFF744FE0346002B76D04FF080535E4A82
:100AC800D3F80434C2F820354FF080535A4AD3F88B
:100AD8000834C2F824354FF08053574AD3F80C3401
:100AE800C2F828354FF08053534AD3F81034C2F86F
:100AF8002C354FF08053504AD3F81434C2F83035AF
:100B08004FF080534C4AD3F81834C2F834354FF0BC
:100B18008053494AD3F81C34C2F840354FF080530B
:100B2800454AD3F82034C2F844354FF08053424A3E
:100B3800D3F82434C2F848354FF080533E4AD3F8EE
:100B48002834C2F84C354FF080533B4AD3F82C3444
:100B5800C2F850354FF08053374AD3F83034C2F8D2
:100B680054354FF08053344AD3F83434C2F86035E2
:100B78004FF08053304AD3F83834C2F864354FF018
:100B880080532D4AD3F83C34C2F868354FF080536F
:100B9800294AD3F84034C2F86C354FF08053264ABE
:100BA800D3F84434C2F87035FFF710FE0346002B23
:100BB80005D0224B1B68224A03F04F031360FFF74E
:100BC8004DFE0346002B0DD04FF08043D3F8003480
:100BD80003F00103002B05D04FF080436FF00102B2
:100BE800C3F80024FFF782FE0346002B05D0154BFF
:100BF8001B68144A43F480631360FFF7DFFEFFF7B6
:100C0800EFFE00BF80BD00BF240300104035014047
:100C180074C007400DF0ADBA440200103C05004016
:100C2800F0ED00E0A0050040105600408856004056
:100C3800185600401456004000C0004058020010EA
:100C4800E40E00403C1700400F49104A104B00F0DA
:100C580010F81049104A114B00F00BF81049114ACE
:100C6800114B00F006F81149114A124B00F001F837
:100C780006E0521A03DD043A98588850FBDC7047A6
:100C8800FFF7BCFEFFF704FB000000200400002073
:100C9800B40F00000400002004000020B80F00007A
:100CA8000400002004000020B80F00000400002009
:100CB80004000020B80F0000FEE7FEE7FEE7FEE7AD
:100CC800FEE7FEE7FEE7FEE7FEE7FEE7830730B54F
:100CD80047D0541E002A3ED0CAB2034601E0013C68
:100CE80039D303F8012B9D07F9D1032C2CD9CDB2A8
:100CF80005EB05250F2C05EB054535D9A4F11002A8
:100D080022F00F0C03F1100EE6444FEA121C1A46AB
:100D1800C2E90055C2E9025510327245F8D10CF10A
:100D2800010214F00C0F03EB021204F00F0C13D0A5
:100D3800ACF1040323F003030433134442F8045BC7
:100D48009342FBD10CF003042CB1C9B21C4403F844
:100D5800011BA342FBD130BD64461346002CF4D1DD
:100D6800F9E703461446C0E71A46A446E0E700BF81
:100D780070B50F4B0F4DAB42A3EB050607D0B6106D
:100D8800002455F8043B01349847A642F9D800F0EE
:100D9800D5F8094D094B5E1BAB424FEAA60606D0B3
:100DA800002455F8043B01349847A642F9D870BD91
:100DB800500F0000500F0000500F0000580F0000A7
:100DC80008B50021044600F023F8034B1B6803B163
:100DD8009847204600F0B0F8EC02002000230146B6
:100DE8001A46184600F076B838B5074D074C2C1B44
:100DF800A41005D0013C55F8043D9847002CF9D1C2
:100E0800BDE8384000F0A4B8680F0000640F000087
:100E18002DE9F04F294F83B03E6801905EB38B46B1
:100E28004FF000094FF001087468651E23D401349F
:100E380006EB8404BBF1000F20D173682268013BE4
:100E4800AB420CBF7560C4F800907AB1D6F888112F
:100E5800D6F804A008FA05FC1CEA010F1AD190473D
:100E680071683A68514522D1B24220D1013D6B1CCC
:100E7800A4F10404DED103B0BDE8F08FD4F800314A
:100E88005B45DAD0013D6A1CA4F10404F6D103B035
:100E9800BDE8F08FD6F88C31D4F880101CEA030F27
:100EA80009D10198904771683A685145DCD0002A09
:100EB800E1D01646B8E708469047D1E72000002061
:100EC800024B13B10248FFF789BF704700000000CA
:100ED800F10D000070B4164D2C681CB365681F2D09
:100EE80023DC38B9AB1C0135656044F823100020B9
:100EF80070BC704704EB850C0228CCF88820D4F825
:100F080088614FF0010202FA05F246EA0206C4F8C7
:100F18008861CCF80831E5D1D4F88C311343C4F892
:100F28008C31DFE7034C2C60D8E74FF0FF30DFE768
:100F38002000002024000020FEE700BFF8B500BF15
:100F4800F8BC08BC9E467047C90E0000710200003C
:100F5800F8B500BFF8BC08BC9E46704749020000BF
:040F68000000000085
:100F6C00B40F00000000002001000000B80F0000CA
:100F7C000400002000000000B80F00000400002056
:100F8C0000000000B80F000004000020000000006A
:100F9C0004000020BB000000F00200200000000054
:080FAC00F0020020000000002B
:040FB4000090D003D6
:0400000300000C519C
:00000001FF
